:100000000C94BF040C9406050C9406050C942E1356
:100010000C9406050C9406050C9406050C94060534
:100020000C9406050C9406050C94B8280C948A29A7
:100030000C9417210C9406050C9406050C940605E7
:100040000C9406050C9406050C9406050C94060504
:100050000C9406050C948C210C9406050C94060552
:100060000C9406050C9406050C9406050C940605E4
:100070000C9406050C9406050C9406050C940605D4
:100080000C9406050C9406050C9406050C940605C4
:100090000C9406050C9406050C9406050C940605B4
:1000A0000C9406050C9406050C940605631763175B
:1000B00095179517DC17FA170E190E1905189E18C3
:1000C000AF18AF18BC19BC19CE19CE19C519CE1965
:1000D000CE19CE19BC19BC19CA19CE19CE19CA1914
:1000E000F7291E2A162B1E2A162B6A2A8D2A162B52
:1000F000E42AF32A209495962020B4B5B62020D483
:10010000D5D62000209798992020B7B8B92020D7BD
:10011000D8D92000209A9B9C2020BABBBC2020DA92
:10012000DBDC20004E6168756D008081828384A0D5
:10013000A1A2A3A4C0C1C2C3C400ABAC00CFD00075
:10014000C600CA00C800A9AA00B1B2008B8C00CDBD
:10015000CE00C500C900C700CB00898A009192007B
:10016000A7A800AFB000C600CA00C800A5A600AD91
:10017000AE008788008F9000C500C900C700CB0083
:100180008586008D8E00202020202000290014006C
:100190001A00080015001700025704001600070097
:1001A00009000A00E0001D001B0006001900050000
:1001B00000000000000003570151005701571300D1
:1001C00012000C0018001C00300033000F000E005D
:1001D0000D000B002F002D0037003600100011001D
:1001E0000000000000006400025100572B000000D6
:1001F000000000004600005C3A003B003C003D006F
:100200003E003F00400041004200430044004500E2
:10021000000000000000E30001002C002600250083
:1002200024005600520057002300220021004F00F6
:100230005100500020001F001E00270055005400F0
:10024000000000000000E200010028004B004E000A
:100250004A004D0049004C00AE00A800AA00A900C9
:10026000BE00BD00AC00AB00AD007A0079006500B7
:10027000000000000000E300010028002A00220224
:10028000210220021F021E024C0027022602250224
:1002900024022302E5002E00310231003800340030
:1002A000000000000000E6000100280000AE00AFE2
:1002B00000DA0281FFD9F1DB20A4A62EAF00A0C096
:1002C00000A1C800AED580A81FD300408D14200027
:1002D0000000000000003E5B4F5B3E003E6B4F6B3A
:1002E0003E001C3E7C3E1C00183C7E3C18001C5707
:1002F0007D571C001C5E7F5E1C0000183C1800002F
:10030000FFE7C3E7FF00001824180000FFE7DBE762
:10031000FF0030483A060E00262979292600407F42
:1003200005050700407F05253F005A3CE73C5A0081
:100330007F3E1C1C0800081C1C3E7F0014227F22EC
:1003400014005F5F005F5F0006097F017F000066A9
:1003500089956A0060606060600094A2FFA29400CA
:1003600008047E04080010207E20100008082A1CC3
:100370000800081C2A0808001E10101010000C1E8F
:100380000C1E0C0030383E383000060E3E0E0600C3
:1003900000000000000000005F00000000070007F0
:1003A0000000147F147F1400242A7F2A12002313D4
:1003B0000864620036495620500000080703000018
:1003C000001C224100000041221C00002A1C7F1C4E
:1003D0002A0008083E080800008070300000080865
:1003E00008080800000060600000201008040200F7
:1003F0003E5149453E0000427F4000007249494954
:1004000046002141494D33001814127F1000274542
:10041000454539003C4A494931004121110907004D
:10042000364949493600464949291E000000140052
:1004300000000040340000000008142241001414A1
:100440001414140000412214080002015909060086
:100450003E415D594E007C1211127C007F49494992
:1004600036003E41414122007F4141413E007F49EB
:10047000494941007F09090901003E41415173008A
:100480007F0808087F0000417F4100002040413F75
:1004900001007F08142241007F40404040007F025D
:1004A0001C027F007F0408107F003E4141413E0056
:1004B0007F09090906003E4151215E007F09192983
:1004C000460026494949320003017F0103003F40AD
:1004D00040403F001F2040201F003F4038403F0069
:1004E0006314081463000304780403006159494D40
:1004F0004300007F414141000204081020000041F8
:1005000041417F000402010204004040404040009D
:100510000003070800002054547840007F2844441A
:100520003800384444442800384444287F00385474
:100530005454180000087E0902001824241C780076
:100540007F080404780000447D4000002040403DC6
:1005500000007F102844000000417F4000007C0420
:10056000780478007C080404780038444444380057
:100570007C1824241800182424187C007C08040407
:10058000080048545454240004043F4424003C40D0
:1005900040207C001C2040201C003C4030403C009F
:1005A0004428102844004C9090907C004464544CA3
:1005B00044000008364100000000770000000041C0
:1005C000360800000201020402003C2623263C00FB
:1005D000F0180C060201010101013929330202075A
:1005E00005060C0818103060C0800000000000F8FC
:1005F000042252E2424242E2522222224282020279
:1006000022220204F80000F80402028242224282FE
:10061000020202824222122242820204F80000F800
:10062000FCDEAE1EBEBEBE1EAEDEDEDEBE7EFEFE4C
:10063000DEDEFEFCF80000F8FCFEFE7EBEDEBE7EC6
:10064000FEFE0000000000008080404020201010CE
:10065000080810102020404080808080C0C0E0E06A
:10066000F0F0F8F8F0F0E0E0C0C08080808040401A
:10067000202010100808101020204040808080802A
:1006800040C060A050B058A850B060A040C080806A
:100690000FF8000000008080C040C0C040C0C040D3
:1006A000C0C040C080808080000103867C00001FA5
:1006B00020444A47424242474A4440404040414227
:1006C000444440201F00001F204041404040404023
:1006D000414041414F4848484F4141201F00001FC1
:1006E0003F7B75787D7D7D78757B7F7F7F7F7E7D8D
:1006F0007B7B7F3F1F00001F3F7F7E7F7F7F7F7F51
:100700007E7F00000000000088885D5D3E3E7C7CAE
:10071000F8F87C7C3E3E5D5D8888888855552323AB
:1007200047478F8F47472323555588888888D5D5D5
:10073000E2E2C4C48888C4C4E2E2D5D58888888847
:100740005DD56BB66DD6ADDA6DD66BB65DD58888E6
:100750001C3F3F7070E1E0C1C1C0C0C0C0C4E27FB7
:10076000712000010100030301030301000004F8EC
:100770000000F804201F00001F20FCF80000F8040F
:100780003F1F00001F2004F80000F8FC201F00009D
:100790001F3FFCF80000F8FC3F1F00001F3FFE7EDB
:1007A000BEDEEEDEBE7EFEFCF8007E7E70777777E2
:1007B000707E7E3F1F00000000000000000000006F
:1007C000000000000000000000000101020204041B
:1007D00008080404020201010000000001010202F5
:1007E00004040808040402020101000000000101E1
:1007F000030307070F0F07070303010100000000B1
:100800000101030205060D0A0506030201010000AD
:10081000480343006F0072006E00650020004B002B
:100820006500790062006F006100720064002000C2
:100830005200650076002E003100200028004C0098
:1008400065006700610063007900200053007000BC
:100850006C006900740029000000100366006F003E
:100860006F007300740061006E000000040309044F
:1008700009023B00020100A0FA0904000001030183
:100880000100092111010001224000070581030830
:10089000000A090401000103000000092111010000
:1008A000012281000705820320000A1201100100C5
:1008B0000000085346010001000102000105010982
:1008C00002A10185020901A10005091901290515E7
:1008D00000250195057501810295017503810105CA
:1008E00001093009311581257F95027508810609B6
:1008F000381581257F950175088106050C0A380297
:100900001581257F950175088106C0C00501098004
:10091000A101850319012AB700150126B700950129
:1009200075108100C0050C0901A101850419012A77
:10093000A002150126A002950175108100C00501D5
:100940000906A101050719E029E715002501950809
:10095000750181029501750881010507190029FFBC
:10096000150026FF00950675088100050819012964
:1009700005950575019102950175039101C011243A
:100980001FBECFEFDAE0DEBFCDBF04B603FE27C047
:100990008091210590912205A0912305B091240515
:1009A0008730904BA740B04BD1F4109221051092A4
:1009B0002205109223051092240514BE84B7877F68
:1009C00084BF0FB6F894A8958091600088618093E9
:1009D0006000109260000FBEE0E0F8E3099512E0BD
:1009E000A0E0B1E0ECEBF7E502C005900D92AA3172
:1009F000B107D9F725E0AAE1B2E001C01D92A1320A
:100A0000B207E1F70E94F8250C94DC2B0C9400004F
:100A1000CF93DF93A7EAB1E04BEA51E061E070E0E9
:100A20008D91E82FE295EF70F0E021A18F70EB013E
:100A300002C0CC0FDD1F8A95E2F7CE019C2F909566
:100A4000922391A392A1892B82A34A175B0741F7B6
:100A5000DF91CF91089508950C942B050C942B05EC
:100A6000209A559A289A5D9A08955D9808955D9AFE
:100A7000089528980895289A08950E94FC060E94D7
:100A80000805A1EAB1E041E050E08D91E82FE29540
:100A9000EF70F0E021A18F70BA0102C0660F771FDE
:100AA0008A95E2F7CB01962F9095922391A392A17C
:100AB000892B82A371E0A73AB70739F70E94300566
:100AC000E2E2F2E0AAE1B2E011921D9282E0EA32A3
:100AD000F807D1F70E94DA0680932A020C9468097D
:100AE0008F929F92AF92BF92CF92DF92EF92FF923E
:100AF0000F931F93CF93DF9380910101811103C066
:100B0000C4E0D0E002C0C0E0D0E0AE01465E5D4F80
:100B10007A0187EAC82E81E0D82E8A01912CAA2476
:100B2000A394B12C25E0822EFBEACF16F1E0DF067C
:100B300009F44CC0F60181916F01E82FE295EF7046
:100B4000F0E021A18F70A50102C0440F551F8A95C6
:100B5000E2F7CA01922F982B91A392A18095892345
:100B600082A350EA5A95F1F7E1EAF1E020E040E093
:100B700050E03191A32FA295AF70B0E090968C9188
:100B800090E03F7002C0959587953A95E2F780FD19
:100B900007C0C501042E01C0880F0A94EAF702C0FD
:100BA00080E090E0282B4F5F5F4F4630510509F7FA
:100BB000F8018081821729F0208380920001992416
:100BC00093940E9408050F5F1F4FAECF80910001E4
:100BD0008823B1F0815080930001811103C0CE5D64
:100BE000DD4F07C08FE99FE00197F1F700C00000DB
:100BF00007C0F70191917F0199938F5F8430C9F706
:100C0000892DDF91CF911F910F91FF90EF90DF9091
:100C1000CF90BF90AF909F908F900895CF93DF9328
:100C200020910101211103C0C0E0D0E002C0C4E066
:100C3000D0E00E941707009729F00297B1F40E94B4
:100C4000390513C00E943B05CE5DDD4F8091360211
:100C500090913702A0913802B0913902888399832C
:100C6000AA83BB8380E090E002C081E090E0DF9146
:100C7000CF9108950E94700590910101911103C0D8
:100C8000E4E0F0E002C0E0E0F0E0EE5DFD4F20E0E7
:100C900030E090E0D901AA5CBD4F5C9141915413C2
:100CA00091E04C932F5F3F4F2430310599F720910D
:100CB0002F02920F90932F0208951F93CF93DF93EB
:100CC00080912A02882309F449C00E947005182FD8
:100CD00080910101811103C0C4E0D0E002C0C0E0F6
:100CE000D0E0CE5DDD4F44E050E0BE0182E392E013
:100CF0000E948D2B488159816A817B814093320209
:100D00005093330260933402709335020E940E06B2
:100D1000892BC9F00E94350580912B028F5F80934B
:100D20002B028630A0F080910101811103C0E0E028
:100D3000F0E002C0E4E0F0E0EE5DFD4F10821182D1
:100D40001282138204C00E94370510922B020E9467
:100D50007009C1E0111122C0C0E020C00E943A0613
:100D6000C1E0811101C0C0E080910101811103C087
:100D700080E090E002C084E090E0FC01EE5DFD4F79
:100D800040913202509133026091340270913502E9
:100D900040835183628373830E9470098C2FDF919B
:100DA000CF911F910895E82FF0E0EE5DFD4F808117
:100DB0000895089580912C02811112C08091D8006D
:100DC00080618093D8008AE18A95F1F700C0809114
:100DD000D90080FD02C082E001C081E080932C0236
:100DE00081E090912C02913009F080E008950E94FA
:100DF000DA0691E0892708950E94F70680930101A1
:100E00000E94DA06882319F00E940B0702C00E9494
:100E100011077894089563E070E082E091E00C940B
:100E2000DC1263E070E082E091E00C94E5120F9335
:100E30001F93CF93DF938C0190911B0180911A0136
:100E4000981761F082E090E00E94BE13EC01892BBC
:100E500039F480911A0180931B0102C0C0E0D0E0F8
:100E6000012B49F480912D0290912E02892B19F4C7
:100E700080E090E002C081E090E00E94BE13892BE8
:100E800049F480912F0280931A0110922E02109241
:100E90002D0206C081E090E090932E0280932D02F7
:100EA000CE01DF91CF911F910F9108950C942C05E5
:100EB00083E0089560E086E891E00C942A0DCF93DA
:100EC000DF93D82FD878C82FC47460E0DD2351F0A9
:100ED00083E891E00E942A0DCC2371F060E08EE758
:100EE00091E00EC080E891E00E942A0DCC2369F0C9
:100EF00060E08AE791E004C060E08CE791E008C020
:100F00000E942A0DCC23C9F006C060E088E791E07A
:100F10000E942A0D12C060E085E791E00E942A0D30
:100F2000D1111FC060E08CE691E00E942A0DCC2315
:100F3000A1F060E088E691E01CC060E082E791E00B
:100F40000E942A0DDD2371F360E08FE691E00E949C
:100F50002A0D60E08AE691E015C060E086E691E047
:100F600011C060E08FE691E00E942A0D60E08AE601
:100F700091E00E942A0D60E083E691E0DF91CF913D
:100F80000C942A0D0E942A0D60E080E691E0F6CFD5
:100F9000CF93DF93D82FD171C82FC27260E0DD23C9
:100FA00051F08DE591E00E942A0DCC2371F060E0B4
:100FB00088E591E00EC08AE591E00E942A0DCC23DD
:100FC00069F060E084E591E004C060E086E591E0CE
:100FD00008C00E942A0DCC23C9F006C060E082E55B
:100FE00091E00E942A0D12C060E08FE491E00E941F
:100FF0002A0DD1111FC060E086E491E00E942A0D05
:10100000CC23A1F060E082E491E01CC060E08CE4BD
:1010100091E00E942A0DDD2371F360E089E491E004
:101020000E942A0D60E084E491E015C060E080E455
:1010300091E011C060E089E491E00E942A0D60E037
:1010400084E491E00E942A0D60E08DE391E0DF915D
:10105000CF910C942A0D0E942A0D60E08AE391E062
:10106000F6CF60E08AE291E00E942A0D60E084E21F
:1010700091E00C942A0D81E00E94861D882321F0C6
:1010800060E084E191E00BC082E00E94861D60E098
:10109000882319F084E091E002C084EF90E00C9482
:1010A0002A0DCF930E9431080E945A070E943B08E4
:1010B0000E945A070E941E1FC82F0E94471F8C2B98
:1010C0000E945F070E941E1FC82F0E94471F8C2B83
:1010D000CF910C94C80760913A0270913B028091C5
:1010E0003C0290913D020E9470216136734E864110
:1010F000910510F00C94600E0E943C0D0C94510868
:10110000EF92FF920F931F93CF938C017B01FB0112
:10111000C281CC23C1F00E94552160933A027093A2
:101120003B0280933C0290933D020A32FDE51F078B
:1011300021F00B321D4571F01DC0F701828188231B
:1011400029F081E00CC08A329D4581F481E00E9443
:10115000C71D07C0F701C28182E0CC2321F00E94A5
:10116000A61DC0E007C00E94C71D04C00B321D456C
:1011700089F3C1E08C2FCF911F910F91FF90EF90D9
:1011800008959C013A9521153F4138F5DC01AA27C5
:10119000B270AC01442754709C012227387094FF30
:1011A0000FC090FF02C080E101C080E0AB2B09F0CE
:1011B0008062452B09F08064232B69F080680BC0A6
:1011C000892F8170AB2B09F08260452B09F0846078
:1011D000232B09F08860FB0109940895CF93DF93D6
:1011E000EC01805E9109089710F0209719F46BE1EB
:1011F00077E102C062E879E1CE010E94C1088C2F3C
:10120000DF91CF910C947E16CF93DF93EC010E9477
:10121000D416CE01805E9109089710F0209719F43A
:1012200062E277E102C069E879E1CE01DF91CF9116
:101230000C94C10881E008950C94800808950C94E2
:101240001E091F93CF93DF9300D000D01F92CDB71C
:10125000DEB749835A836B833091830289819A81F7
:10126000311114C0662359F0222349F00E949D1EBB
:10127000182F682F89819A810E94441E03C00E9402
:10128000701E182F69817A81812F04C00E949D1ED3
:1012900069817A810F900F900F900F900F90DF91DE
:1012A000CF911F910C94DB09FC01262F40815181C5
:1012B0006281738184810C942109CF93DF93EC01C7
:1012C00060E00E945409BE01DF91CF910C941F0988
:1012D0000E94C51F811102C00E946C200C94560709
:1012E0000E9424120C942E0508950E94AA190E94AF
:1012F00074092FEF84E39CE0215080409040E1F797
:1013000000C000000C94B2210F931F93CF93DF9382
:10131000EC0161E00E9454098C01BE010E94811120
:10132000BE01C8010E941C09882379F1BE01C801D1
:101330000E94C811882349F1BE01C8010E94400FD4
:10134000882319F1BE01C8010E94920F8823E9F099
:10135000BE01C8010E94BD108823B9F08A8188238C
:1013600069F001158CE5180731F00F3D1C4531F48B
:101370000E946C200AC00E94750907C0CE01DF914F
:10138000CF911F910F910C941A0980E0DF91CF91BA
:101390001F910F91089508950C94CB0981E0089551
:1013A0000C94CE09CF93C82F0E94CC098C2F0E9499
:1013B000D009CF91089520E3829FC0011124FC0140
:1013C00026E0729FE00DF11D1124E60FF11DEE0FD6
:1013D000FF1FE457FE4F859194910895CF93DF93BB
:1013E0000E94DB090E94F00AEC01811521E59207B9
:1013F00008F043C0811540E5940708F08AC0883E94
:10140000910520F5803E910508F0E6C0883A9105E7
:1014100070F4853A910508F074C08130910509F4A3
:10142000DBC008F4D7C0049708F0D6C0D3C08F3B08
:10143000910508F0CFC0C85AD0E0CC0FDD1FC155D0
:10144000DE4F0990D881C02DD464C6C0C11580E29A
:10145000D80758F4C11521E0D20708F0BDC0C03F3D
:10146000D10508F4B7C0D065B7C0C11540E4D407B2
:1014700008F4B0C0DF70D06AAFC0C11585E5D807E9
:10148000A0F4C11524E5D20708F08AC0C11543E5D0
:10149000D40708F06FC0C11582E5D80708F054C022
:1014A000DC2FCC27C16FD06A97C0C11529E5D207C0
:1014B000A0F4C11548E5D40708F077C0C11586E54A
:1014C000D80708F087C08C2F0E94840B8F71C82F1B
:1014D000D0E0DC2FCC27D0627FC0C1152AE5D2072F
:1014E00008F468C0CE0190568115904208F072C091
:1014F0008D2F8F710E94840BDD27D0628F71D82BC6
:101500006BC0C55AD0E0C352DE4FC881D0E0D06472
:1015100063C074E0969587957A95E1F783709C2F68
:10152000937021E030E002C0220F331F9A95E2F75A
:101530003C68382BCF70C695C69580E2C89FE00105
:101540001124C22BD32B48C0CE018370992721E0F0
:1015500030E002C0220F331F8A95E2F78C2F869568
:10156000869540E2849FC0011124E901C82BD92B44
:10157000DC6832C0CE018370992721E030E002C0E0
:10158000220F331F8A95E2F78C2F8695869540E2CD
:10159000849FC0011124E901C82BD92BDA681CC033
:1015A000DC2FCC27C46FD06A17C0DC2FCC27C06FCC
:1015B000D06A12C08C2F8F700E94840B94E0D69555
:1015C000C7959A95E1F7CF70D0E0DC2FCC27D06992
:1015D000C82B02C0C0E0D0E0CE01DF91CF910895CA
:1015E0008238910569F1B0F48133910509F46DC039
:1015F00048F48932910509F463C08A32910509F4EF
:1016000069C008958533910509F455C08933910562
:10161000B9F00895833E910569F138F4803E910553
:10162000B1F0823E910509F10895863E9105A9F138
:10163000873E9105B9F1843E910509F064C023C04D
:101640002091120520FD4FC021FD4DC008958091CD
:10165000120580FD44C08091130580FF44C0809135
:10166000120584FD42C083EE4DC08091120582FFB9
:1016700038C0F5CF8091120582FD33C080911305EB
:1016800080FD31C0ECCF8091130581FF32C0809185
:10169000120584FD2AC087EE35C08091120583FFB4
:1016A00026C0F5CF8091120583FD21C080911305DE
:1016B00081FD1FC0ECCF8091120585FD1CC01DC0AF
:1016C0008091120585FD19C016C08091120586FD16
:1016D00016C017C08091120586FD13C010C089E3A3
:1016E00011C082EE0FC080EE0DC080E00BC086EE10
:1016F00009C084EE07C089E205C085E303C08AE221
:1017000001C081E390E008959091120592FF0DC011
:10171000282F2871283019F4877F846006C0282F6D
:101720002471243011F48B7F886093FF0DC0282F23
:101730002871283119F4877E846106C0282F24710E
:10174000243111F48B7E88612091130520FF0DC098
:10175000382F3871383019F4877F816006C0382FF0
:101760003171313011F48E7F886021FF0DC0282F38
:101770002871283119F4877E816106C0282F2171D4
:10178000213111F48E7E886194FD877E0895EF9259
:10179000FF920F931F93CF93DF93EC017B0164E6DD
:1017A00070E088E70E9447148C01EC0EFD1ECE15F8
:1017B000DF0561F017FD0AC0FE01849164E670E068
:1017C0000E949E148C012196892B89F30E94221578
:1017D000C801DF91CF911F910F91FF90EF90089575
:1017E000E8E0F3E080E092E0DF019C011D922150EF
:1017F0003040E1F7F0930D05E0930C058FEF9FEF7C
:1018000090936A028093690208950E94580780931A
:10181000650280FD02C080E801C080E2809364021E
:101820000E9441146DE070E083EC92E00E94C70BCF
:10183000892B11F080E008958091650263E070E0EB
:1018400081FD03C080EC92E002C08DEB92E00E942B
:10185000C70B892B79F76DE070E080EB92E00E9476
:10186000C70B892B39F70E945521DC01CB01805A27
:101870009541AF4FBF4F8093080590930905A09302
:101880000A05B0930B050E94F00B81E0809368027B
:10189000809367021092660208952091640236E0F8
:1018A000839FC0011124629F800D911D1124811519
:1018B00022E0920714F080E090E0885F9C4F9093C4
:1018C0000D0580930C05089520910C0530910D05B0
:1018D0002250334040916402642F70E0C9010E949D
:1018E000562B481B463010F4240F311D211582E081
:1018F000380710F020E030E0285F3C4F30930D05B2
:1019000020930C050895CF93DF938A3011F481E082
:1019100003C08D3029F480E0DF91CF910C94F90C55
:10192000C62F682F80910C0590910D0526E0FC01D3
:10193000AEE3B2E001900D922A95E1F7603E30F0FF
:1019400026E0FC0111922A95E9F70AC0F6E06F9FA4
:10195000B001112460537D4F46E050E00E94842B7B
:10196000C11135C0C0910C05D0910D0546E050E085
:10197000BE018EE392E00E948D2B892BB1F1C850FD
:10198000D3409E0185E0369527958A95E1F781E061
:1019900090E0AC0102C0440F551F2A95E2F7209158
:1019A000690230916A02242B352B259645E0D695A5
:1019B000C7954A95E1F702C0880F991FCA95E2F7CB
:1019C000822B932B90936A02809369020EC0E09160
:1019D0000C05F0910D059F012A5F3F4F2E173F0721
:1019E00009F2808180958193F9CFDF91CF910C949A
:1019F000640CCF93E82F20910C0530910D052850F1
:101A0000334040916402642F70E0C9010E94562B5C
:101A1000481B842FEE2359F066E00E944A2BC82F02
:101A2000C150B0F060E080E20E94830CF9CFA901C0
:101A3000480F511D4115524018F080E020E030E081
:101A4000280F311D285F3C4F30930D0520930C0566
:101A5000CF9108951F93CF93DF93EC01162FFE01D2
:101A60008491882329F0612F0E94830C2196F7CF5F
:101A7000DF91CF911F910895809168028823F9F03A
:101A80000E945521DC01CB01805A9541AF4FBF4FD9
:101A90008093080590930905A0930A05B0930B0560
:101AA0008091670281110BC062E070E08EEA92E0E3
:101AB0000E94C70B892B19F481E080936702809103
:101AC000670208956F927F928F929F92AF92BF921A
:101AD000CF92DF92EF92FF920F931F93CF93DF93FA
:101AE00080916802882309F4DCC02091690230915A
:101AF0006A022115310509F4D4C080916602811172
:101B0000D0C061E070E0082F10E03B01082E02C059
:101B1000660C771C0A94E2F7A90146215721452B50
:101B200011F48F5FF0CF90916502980165E0220F6C
:101B3000331F6A95E1F790FD12C08295880F807679
:101B400080938601220F232F221F330B3195209380
:101B50008901815E8093870110928A0112C045E05D
:101B6000369527954A95E1F7220F220F220F2093F1
:101B7000860110928901295F2093870183E0809379
:101B80008A0124E630E047E050E064E871E088E74D
:101B90000E94CE14892B09F084C08091650280FDDB
:101BA00023C0A80195E0440F551F9A95E1F7485FBF
:101BB0005C4F04E610E020E230E060E488E70E9439
:101BC000F514892B09F06DC00E943C0DE301C0950E
:101BD000D0958091690290916A02C823D923D0934D
:101BE0006A02C09369025DC080E2E4E4F2E0DF01D2
:101BF0001D928A95E9F785E0000F111F8A95E1F79C
:101C0000A4EEB1E040EE51E0992493942D91EA01C5
:101C10008991AE01B801680F711D685F7C4F30E09B
:101C20002C5B3D4FF90197E07F01E21AF30AA92CE2
:101C300001C0AA0CEA94EAF77B01B12CE701899173
:101C40007E018A21892E8B18D82DD770CD2E0D2E8E
:101C5000000CDD08C82F01C0CC0FDA95EAF7D1944B
:101C6000C194D108D7E0CD22DD2401C08695CA9465
:101C7000EAF78C2BD0808D298083B39488E0B8124A
:101C8000DDCF915031969F3F79F6C1E0A83EBC0769
:101C900009F0BCCF04E610E020E230E044E452E07A
:101CA0008CCFDF91CF911F910F91FF90EF90DF903C
:101CB000CF90BF90AF909F908F907F906F9008953E
:101CC0008091680290916702882389F0992369F0D6
:101CD00062E070E08CEA92E00E94C70B892B19F059
:101CE000809167020895109267029091670281E0E7
:101CF000892708950F931F9380916802882329F103
:101D000060E080E00E944D0C0E946B080E94620D12
:101D1000809167028823C9F00E945521009108052F
:101D20001091090520910A0530910B05DC01CB01CA
:101D3000801B910BA20BB30B8F3F9F4FAF4FBF4741
:101D400020F41F910F910C94600E1F910F91089534
:101D5000AF92BF92CF92DF92EF92FF920F931F93B9
:101D6000CF93DF937C015B01C42FD22FFC018281D2
:101D70008823F9F040936D020E94492190936C02F0
:101D800080936B0280E28C0F883008F06EC0C770C1
:101D900081E001C0880FCA95EAF7DF91CF911F91CA
:101DA0000F91FF90EF90DF90CF90BF90AF900C9489
:101DB0001B1780916D02481335C080916B02909182
:101DC0006C020E9461216C01B701C5010E94631C75
:101DD000C816D90638F510E21D0FCD17B9F080E20C
:101DE0008C0F883040F4C77081E001C0880FCA951D
:101DF000EAF70E942217183058F581E09D2F97705E
:101E000001C0880F9A95EAF70E941B17802F0E9445
:101E10000817183050F5D77081E001C0880FDA95A7
:101E2000EAF70AC080E28C0F8830F8F4C77081E0CE
:101E300001C0880FCA95EAF7DF91CF911F910F91EA
:101E4000FF90EF90DF90CF90BF90AF900C9422174F
:101E5000802FDF91CF911F910F91FF90EF90DF9036
:101E6000CF90BF90AF900C940817DF91CF911F9146
:101E70000F91FF90EF90DF90CF90BF90AF900895BB
:101E80000F939C01CB01243F4CE5340731F188F4DA
:101E9000293DFCE53F07D9F02A3D4CE5340779F1AF
:101EA000283D3C45A9F506E221EE41EE68ED7CE5D2
:101EB0002BC0263FFCE53F07E1F0A8F0273F3C455B
:101EC00039F507E225EE46EE67EF7CE51DC007E237
:101ED00025EE45EE69ED7CE517C006E221EE40EE09
:101EE00064EF7CE511C007E225EE44EE65EF7CE58A
:101EF0000BC006E221EE42EE66EF7CE505C008E28B
:101F000021E045EE6AED7CE50E94A80E80E008C065
:101F1000FC018281882319F010926D0201C081E0DA
:101F20000F910895CF93DF93EC01FB018281882309
:101F300009F41FC1C230FCE5DF0708F41BC1C6313C
:101F40009CE5D90738F09E012B5F3C4529303105CF
:101F500008F010C10E94D81F9093130580931205BA
:101F6000C031ECE5DE0709F4C3C008F041C0C83059
:101F70008CE5D80709F49AC0F0F4C430ECE5DE072C
:101F800009F487C068F4C2308CE5D80709F477C03B
:101F9000C330DC4509F0E3C080911205826076C051
:101FA000C630ECE5DE0709F46EC008F07BC0809116
:101FB000120588606BC0CC308CE5D80709F485C069
:101FC00068F4CA30ECE5DE0709F474C008F079C0A3
:101FD0000E94AA1980911205806858C0CE308CE505
:101FE000D80709F476C008F07FC0809112058BC035
:101FF000CC3FECE5DE0709F44FC018F5C3318CE5A2
:10200000D80709F47DC078F4C131ECE5DE0709F4A6
:1020100073C0C231DC4509F0A2C00E94AA198091A8
:1020200012058F7733C0C5318CE5D80709F472C02B
:1020300008F486C0CB3FDC4509F091C080911305C0
:102040003EC0C115FDE5DF0709F45FC058F4CE3F7F
:102050009CE5D90709F444C008F43FC080911305FA
:1020600082602DC0C230FDE5DF0709F475C008F4B9
:102070005DC0C330DD4509F072C080E06EC0809164
:102080001205816003C08091120580618093120562
:1020900066C08091120511C0809113058260809303
:1020A00013055DC0809112058062F0CF809112050A
:1020B0008064ECCF8091120588608460E7CF8160F6
:1020C000EECF809112058E7FE1CF809112058D7F3A
:1020D000DDCF80911205877FD9CF8091130518C07D
:1020E000809113058D7FDBCF809112058F7ECECF3F
:1020F000809112058F7DCACF809112058F7BC6CF4C
:1021000080911205877F8B7FC1CF809113058D7FD2
:102110008E7FC5CF8091120582FB222720F991E0A6
:10212000922790FB82F990FB83F9B0CF8091130541
:10213000982F909591708E7F892B90FB81F9AFCF6E
:102140000E94AA198091120587FB222720F991E0AD
:10215000922790FB87F99ACF81E00E946E208091B0
:102160001205909113050E94E91F0E94AA1980E0B0
:1021700001C081E0DF91CF910895CF93DF93863145
:102180009C4541F5EB010E941E1F982F8A812091EA
:102190008C0130918D01882379F09A7A81E009F4DD
:1021A00080E080936E02911102C069E201C065E394
:1021B000C9010E94B5200AC080916E02811102C03F
:1021C00069E201C065E3C9010E94B7200E94621F55
:1021D00080E001C081E0DF91CF910895CF93DF933C
:1021E000EC0181E0898B8F810E94211F88850E94EC
:1021F000341F0E94621FEA81FB81CE010696309750
:1022000029F06C897D89DF91CF910994DF91CF917D
:102210000895CF93DF93FC012081223041F4FB012C
:10222000EC01828193810E94EE0881E08B87DF912F
:10223000CF910895FC018081813021F4FB018081E0
:10224000918105C0823029F4FB01828193810C9435
:10225000EE080895FC018081813021F4FB0180812A
:10226000918105C0823029F4FB01828193810C9415
:1022700004090895EF92FF920F931F93CF93DF937A
:10228000FC012285211136C0EC01E380F480F7E5E2
:10229000FF1A26E12E9DC0012F9D900D1124DC0117
:1022A000A45EBE4F1496ED91FC9115978E5D9E4FE6
:1022B000309729F054966D917C915597099586E158
:1022C0008E9D80018F9D100D1124045E1E4FF8011C
:1022D00087810E94271FF80180850E943A1F0E9473
:1022E000621F188219861B861E821D821092700240
:1022F00010926F02DF91CF911F910F91FF90EF909D
:102300000895DF92EF92FF920F931F93CF93DF9385
:10231000FB0122812223A1F120918B012F3F81F12A
:102320008C01CCE1D1E0E12CF12CDD24D39480911F
:102330008B01082E000C990B8E159F050CF18E81D8
:102340008823C9F089859A858017910739F480918F
:102350006F02909170020817190769F0DF861C87D9
:102360000B878989811103C0CE010E94EE10CE0136
:1023700006960E943A11FFEFEF1AFF0A6696D7CF32
:10238000DF91CF911F910F91FF90EF90DF90089513
:10239000EF92FF920F931F93CF93DF939C013755DA
:1023A0002F3F310511F008F047C040918B01042EFA
:1023B000000C550B4217530714F420938B01FB01BB
:1023C0007C01828196E1929F8001939F100D1124E0
:1023D000E801C45EDE4F888B92818E81992311F1D2
:1023E000FA86E9868F5F8E830E9449219E878D87BA
:1023F0000E94471F8F830E941E1F88870E94311FE3
:102400009885892B8887E881F981C8018E5D9E4F68
:10241000309719F06C897D890995F0927002E092ED
:102420006F020AC0882341F08989882329F0C801F6
:102430008E5D9E4F0E943A1181E0DF91CF911F91F6
:102440000F91FF90EF900895CF92DF92EF92FF925D
:102450000F931F93CF93DF9380918B018F3F09F4EC
:1024600042C0F12C86E1E82E0F2D10E080918B0107
:10247000082E000C990B80179107ACF1E09EF0013B
:10248000E19EF00D1124E45EFE4FC288D388C11492
:10249000D10439F460E070E0818592850E94631C6C
:1024A0006C01E09EE001E19ED00D1124C45EDE4F80
:1024B0008E818823B1F08D859E850E946121C8168A
:1024C000D90678F48989811103C0CE010E94EE10EB
:1024D000E09EC001E19E900D11248E5D9E4F0E94F2
:1024E0003A11F394C1CFDF91CF911F910F91FF90DB
:1024F000EF90DF90CF9008958EE14A9B02C081500B
:10250000E1F74A9BFECF08955A9880E28A95F1F749
:102510005A9A0895FC012AE02A95F1F790E020E00C
:1025200080E031E0261779F040E14A95F1F7880F15
:102530004A9B02C08160932700C0000040E14A9599
:10254000F1F72F5FEFCF20E12A95F1F729B100C015
:10255000000030E13A95F1F722FB222720F992277B
:102560002081920F90830895EF92FF920F931F9313
:10257000CF93DF931F92CDB7DEB719828C017C0118
:10258000E60EF11C0E151F0559F00E947C1268E042
:10259000CE0101960E948A12F80181938F01F2CF39
:1025A00081E09981911180E00F90DF91CF911F918F
:1025B0000F91FF90EF9008959093730280937202B1
:1025C00060937102529A5A9A08959093730280937D
:1025D00072026093710252985A9AEA9AE9E6F0E020
:1025E00080818F7C80830895615091E001C0990FB4
:1025F0006A95EAF720E031E0992361F0492F4823FA
:1026000019F05A9A232701C05A9840E24A95F1F7E7
:102610009695F2CF222311F05A9A01C05A9880E27F
:102620008A95F1F75A980895FF920F931F93CF93CD
:10263000DF93EC018C01060F111DC017D10741F08B
:10264000F9900E94841268E08F2D0E94F412F5CF59
:10265000DF91CF911F910F91FF9008951F920F92DC
:102660000FB60F9211240F931F932F933F934F9305
:102670005F936F937F938F939F93AF93BF93EF93EA
:10268000FF93CF93DF931F92CDB7DEB719820E94DD
:102690007C1267E0CE0101960E948A12382F36958F
:1026A00036953695932F96959570232F2570920F1A
:1026B000292F2370969596958770920F891348C09D
:1026C0008981811145C080917102831708F440C04F
:1026D00080E18A95F1F75A9A529AA2E0AA95F1F709
:1026E00000C00091720210917302B8E03B9F000D90
:1026F000111D11245A98F8016581662321F0868105
:1027000097810E9414130E948412F0E1FA95F1F768
:102710005A9852985A9A80E18A95F1F7D801129600
:102720006C911297662369F013968D919C91149782
:102730000E94B412D801ED91FC91811105C082E094
:1027400004C0D801ED91FC9188E080830E947C1246
:102750000F90DF91CF91FF91EF91BF91AF919F913A
:102760008F917F916F915F914F913F912F911F9129
:102770000F910F900FBE0F901F9018950F931F93FE
:10278000CF93DF932091710230E0281739070CF4C2
:1027900071C09C0193E0220F331F9A95E1F7C0911D
:1027A0007202D0917302C20FD31FF894529A5A98B2
:1027B00045E04A95F1F70000982F96959570857041
:1027C000890F982F937086958695890F8901082B1C
:1027D0000E94841284E08A95F1F700C067E0802FA0
:1027E0000E94F41240E14A95F1F752985A9A4A9998
:1027F00002C000C0FCCF87E090E04A9B0EC001976A
:1028000051F4529A5A9AE881F98181E08083789450
:1028100081E090E031C000C0F0CF6D81662381F08F
:102820008E819F810E94B41281110AC0529A5A9AD5
:10283000E881F98182E08083789482E090E01CC096
:102840000E947C1280E28A95F1F75A98529A40E1F0
:102850004A95F1F76A81662321F08B819C810E9461
:1028600014130E948412E881F9811082789480E028
:1028700090E002C084E090E0DF91CF911F910F9132
:1028800008951092B9008CE08093B8000895EF92FB
:10289000FF920F931F93CF93DF93182FEB011092AA
:1028A000BC0084EA8093BC000E9449217C01809195
:1028B000BC0087FD0EC0CF3F8FEFD807C1F30E9449
:1028C00049218E199F098C179D0788F38EEF9FEF82
:1028D0002EC08091B900887F883041F08091B90086
:1028E000887F803119F08FEF9FEF21C01093BB00DC
:1028F00084E88093BC000E9449218C018091BC0037
:1029000087FD0CC0CF3F8FEFD807C1F30E9449214C
:10291000801B910B8C179D0788F3D8CF8091B9004D
:10292000887F883111F08034F1F680E090E0DF910B
:10293000CF911F910F91FF90EF9008950F931F93E8
:10294000CF93DF93EB018093BB0084E88093BC00BE
:102950000E9449218C018091BC0087FD0EC0CF3FB1
:102960008FEFD807C1F30E944921801B910B8C1770
:102970009D0788F38EEF9FEF0CC02091B900287F50
:1029800081E090E0283211F480E090E0919581950B
:102990009109DF91CF911F910F910895CF92DF920E
:1029A000EF92FF920F931F93CF93DF936B018A01F6
:1029B0007901B9010E944714E6010C0D1D1DC017D5
:1029C000D10761F424E92093BC00DF91CF911F91DE
:1029D0000F91FF90EF90DF90CF90089597FDF2CF89
:1029E000B70189910E949E14EACFCF92DF92EF92B5
:1029F000FF920F931F93CF93DF93C62F6A01790144
:102A0000B8010E94471497FD11C0B8018C2F0E9495
:102A10009E14E601EC0CFD1CCE15DF0539F097FD88
:102A200005C0B80189910E949E14F6CF24E9209335
:102A3000BC00DF91CF911F910F91FF90EF90DF903D
:102A4000CF90089584E98093BC0008959093790213
:102A5000809378020895E0917802F091790230979E
:102A600021F00190F081E02D099480E00895E0913B
:102A70007802F0917902309721F00280F381E02D05
:102A800009940895E0917802F0917902309739F035
:102A900022E0DC012C930480F581E02D0994089557
:102AA00020917602309177022817390771F09093C0
:102AB000770280937602E0917802F0917902309764
:102AC00021F00680F781E02D099408952091740289
:102AD000309175022817390771F090937502809331
:102AE0007402E0917802F0917902309721F000842D
:102AF000F185E02D0994089585B7806885BF85B775
:102B0000806885BF089581E008950C948315089529
:102B10000C9487150C9487150C948A150C948715C2
:102B20000C948E150C9487150E947C150E949215AA
:102B30000C9490150E9440210E943D0580E00E9467
:102B4000050C0E94C3210C948C159F92AF92BF92EA
:102B5000CF92DF92EF92FF920F931F93CF93DF9369
:102B6000CDB7DEB72A970FB6F894DEBF0FBECDBF44
:102B70000E9488150E9487150E945D06C82E0E943B
:102B80008515811111C08FEF89838A831B820E9472
:102B900049218160782F9D838C8349815A816B8183
:102BA0008D810E944A1640C08BE7A82E82E0B82E85
:102BB00000E010E0902E802F0E94D306E82EF50151
:102BC000D1905F01D82631F40F5F1F4F08301105F7
:102BD00089F7D9CF8091EF0281FD0E94D90680E06C
:102BE000FF24F3949D2D9F21D1F08E839F82EF20AF
:102BF00081E009F480E088870E9449218160782F74
:102C00009A8789874E815F8168858A850E944A16E6
:102C1000F801E558FD4F8081F826F08205C08F5FEE
:102C2000FF0C8630F9F6D0CF0E947A0EC1100E94B8
:102C30003C0D0E9472230E942B1590917A028917F5
:102C4000B9F00E942B1580937A022A960FB6F89459
:102C5000DEBF0FBECDBFDF91CF911F910F91FF90CF
:102C6000EF90DF90CF90BF90AF909F900C94D209DF
:102C70002A960FB6F894DEBF0FBECDBFDF91CF917D
:102C80001F910F91FF90EF90DF90CF90BF90AF908A
:102C90009F900895CF93DF93CDB7DEB72B970FB6F4
:102CA000F894DEBF0FBECDBF4F83588769877A8700
:102CB0008B87DE01119686E0FD0111928A95E9F776
:102CC00085E0FE01379601900D928A95E1F74981E2
:102CD0005A816B817C818D819E810E94661C2B961E
:102CE0000FB6F894DEBF0FBECDBFDF91CF91089530
:102CF000FC01808191810E94DF1E0895CF9388237B
:102D000009F450C0C82F8CEF8C0F813AD0F46C2F8F
:102D100080918C0190918D010E947F20882349F041
:102D20006C2F80918C0190918D010E94B7200E94A0
:102D3000621F6C2F80918C0190918D010E94B520B3
:102D40000CC080E28C0F883058F4C77081E001C05D
:102D5000880FCA95EAF70E94211FCF910C94621F39
:102D6000EBE5EC0FE33040F4F0E0EA5EFD4F8081EC
:102D700090E0CF910C945015E8E5EC0FE73150F45A
:102D8000F0E0EE0FFF1FE851FE4F80819181CF915F
:102D90000C946615C03F30F08C2F0E946722CF91B3
:102DA0000C945423CF910895882389F19CEF980FB8
:102DB000913A40F4682F80918C0190918D010E948E
:102DC000B7200DC090E2980F983058F4877091E0CA
:102DD00001C0990F8A95EAF7892F0E94271F0C944A
:102DE000621F9BE5980F933020F480E090E00C94F4
:102DF000501598E5980F973120F480E090E00C94FE
:102E00006615803F20F00E94CF220C945423089531
:102E1000CF93C82F0E947E16C93349F42FEF87EE57
:102E200093E0215080409040E1F700C000008C2FDB
:102E3000CF910C94D416882321F00E94211F0C946A
:102E4000621F0895882321F00E94271F0C94621F9F
:102E50000895CF92DF92EF92FF920F931F93CF933B
:102E6000DF937C01D62FC72FFC01058102950F70DF
:102E7000128111110E94411F0E94171F882399F08F
:102E8000112389F08C2F807F803421F080E28D0F18
:102E9000883048F082E00E94AC1F0E94171F91E02A
:102EA000D82ED92601C0D12CCC2EC2948FE0C822B6
:102EB0008C2D90E08C30910508F0B0C1FC01EA5AED
:102EC000FF4F0C947E2B8C2F807FCF70882311F0C6
:102ED000C295C07F112399F0CC2309F48BC180E205
:102EE0008D0F883010F0D11104C08C2F0E94211F4B
:102EF00003C08C2F0E94341F0E94621F7BC18D2F44
:102F00000E94D416CC2309F489C180E28D0F883049
:102F100010F0D11104C08C2F0E94271F03C08C2FEA
:102F20000E943A1F0E94621F79C18C2F807FCF7050
:102F3000803211F0C295C07FDD2319F0D130C9F085
:102F400025C0112371F0002341F0013031F40E94BB
:102F5000471F8C2B0E944F1F61C10E94471F8C2B63
:102F60000EC0002319F0013009F458C10E94581F07
:102F70001FC0112339F0063008F050C18C2F0E9479
:102F80001B174CC1053008F049C112C0112319F0BC
:102F90000023A1F32FC1002359F0D93309F03BC11D
:102FA000FFEF07EE13E0F15000401040E1F731C1B0
:102FB0008C2F0E94221732C18C2F869586958370A4
:102FC00019F0813061F02AC1112321F08D2F9C2F3F
:102FD000937002C080E090E00E94501527C1112339
:102FE00021F08D2F9C2F937002C080E090E00E9412
:102FF00066151CC18D2F112319F00E94672202C093
:103000000E94CF220E94542311C18C2F837009F09B
:1030100047C0111107C12D2F229526952770220F29
:10302000220F6D2F6F70862F90E0A0E0B0E0022E8F
:1030300004C0880F991FAA1FBB1F0A94D2F7D4FFA0
:1030400010C04FE050E060E070E004C0440F551F36
:10305000661F771F2A95D2F7409550956095709519
:1030600003C040E050E0BA01C695C695C3708A011E
:103070009B01082B192B2A2B3B2BC901B801C2300D
:1030800049F058F4C13019F00E943A1DCBC00E949B
:10309000281DC8C00E944C1DC5C00E94261DC2C06C
:1030A000112319F08C2F817001C08695882309F4B3
:1030B000B9C02D2F229526952770220F220F6D2F34
:1030C0006F70862F90E0A0E0B0E0022E04C0880F61
:1030D000991FAA1FBB1F0A94D2F7D4FF10C04FE05C
:1030E00050E060E070E004C0440F551F661F771F7A
:1030F0002A95D2F7409550956095709503C040E0B1
:1031000050E0BA01C695C695C3708A019B01082B91
:10311000192B2A2B3B2BC901B801C23049F058F4B6
:10312000C13019F00E941F1E7DC00E940D1E7AC082
:103130000E94311E77C00E94601D74C0CF701123A1
:1031400039F08C2F0E94A61D8D2F0E941B176AC07C
:103150008D2F0E9422178C2F0E94C71D63C0D23F63
:1031600001F128F4D03F41F0D13FA1F03FC0D33F5F
:10317000F9F0D43F39F13AC0112341F0053008F09D
:103180004DC08C2F8F710E94EC1D48C0063008F096
:1031900045C0F7CF112339F08C2F8F710E94A61DE7
:1031A0003DC01123C9F38C2F8F710E94C71D36C0FB
:1031B000112329F08C2F8F710E94911D2FC00E9426
:1031C0006C1D2CC0112349F0CF718C2F0E94A61DBD
:1031D00063E08C2F0E94971F21C081E00E94AC1FEA
:1031E0000230E0F082E00E94AC1F18C0112331F0E1
:1031F000002391F28D2F0E947E1610C0002399F2B9
:10320000D93349F41FEF27EE33E01150204030400E
:10321000E1F700C000008D2F0E94D41688EF8C0DBE
:10322000843020F40E942B150E94D209DD20C9F0C1
:103230000E94131F80FD15C0F70112820E940D1F0E
:103240000E94A61DC7010E9452190E940D1FDF9106
:10325000CF911F910F91FF90EF90DF90CF900C9442
:10326000C71DDF91CF911F910F91FF90EF90DF90DD
:10327000CF9008950F931F93CF93DF93EC01688154
:1032800079818A810E94EA1E8C010E94431E0E945D
:10329000141DB801CE010E942917DF91CF911F9113
:1032A0000F910895CF93DF93EC01988189812B8151
:1032B0003C81232B31F08F3F31F481E09F3F19F4A3
:1032C00003C081E001C080E080FD19C0CE010E94F2
:1032D000840981110CC00E94171F882381F08A8104
:1032E000882369F082E0DF91CF910C94AC1FCE016E
:1032F0000E943A19CE01DF91CF910C945D09DF91C4
:10330000CF910895882321F00E94341F0C94621FEE
:103310000895882321F00E943A1F0C94621F08959B
:103320000E94411F0E94441F0E94621F0E94852428
:103330000E94542380E090E00E94501580E090E0CD
:103340000C94661580918C0190918D010E94B9209A
:103350000C9490190E942E1F0C94A219E92FE2954B
:10336000EF704E2F50E0FA013297EE30F105B0F4D5
:10337000EE59FF4F0C947E2B803F91F018F4883E5D
:1033800068F40EC0843F51F40BC0883E48F0813F82
:1033900029F406C093FB882780F9089580E00895FA
:1033A00081E008950E94DF1E0E94AE190895CF9318
:1033B000DF9300D000D01F92CDB7DEB70F900F90F3
:1033C0000F900F900F90DF91CF910895CF93DF93DF
:1033D00000D000D000D0CDB7DEB726960FB6F89457
:1033E000DEBF0FBECDBFDF91CF9108951F93CF9366
:1033F000DF93C091840216E080918502C81799F08E
:10340000D0E01C9FF0011D9FF00D1124EA57FD4FE5
:103410004081518162817381848195810E94E61986
:103420002196C770E9CFDF91CF911F910895409108
:10343000B6025091B7026091B8027091B9028091C2
:10344000BA029091BB020C94E6190F931F93CF938D
:10345000DF938091BB0282958F7009F05DC08091EF
:10346000B802882309F458C0809184021091850223
:103470006091B6027091B702C091B902D091BA02C0
:1034800091E06F3F09F090E0292F06E0811709F4E1
:1034900043C0209721F07F3F21F030E003C031E0AE
:1034A00001C0322F90E030FD34C0089FF001099F29
:1034B000F00D1124DF01AA57BD4F11963C911197D1
:1034C000371327C03C91361324C012963C911297B3
:1034D00031111FC013964D915C9114974C1B5D0BDD
:1034E000483C5105B0F48091BB028F70806180939D
:1034F000BB02E557FD4F80818F708061808386EB32
:1035000092E00E945219DF91CF911F910F910C947C
:10351000F61901968770BACFDF91CF911F910F9165
:1035200008959F92AF92BF92CF92DF92EF92FF9257
:103530000F931F93CF93DF93CDB7DEB761970FB68D
:10354000F894DEBF0FBECDBF8C0185E0F801DE012F
:103550001D9601900D928A95E1F7F8014081518105
:10356000E2809091B6026091B7022091B902309149
:10357000BA022115310531F06F3F31F481E09F3FF0
:1035800019F403C081E001C080E0F82FF1709F2E94
:1035900080FD46C1F801A380B48086EBC82E82E08E
:1035A000D82EF090B802F501E21BF30BFF2009F4CE
:1035B000DFC08091BB02E83CF10508F09BC0282FDA
:1035C000207F09F052C0561313C0491311C0FE2CBE
:1035D000E1100EC08F7080618093BB020E94171AA9
:1035E000C6010E9452198091BB02F801858358C11F
:1035F000AB2831F05F3F31F481E04F3F19F403C055
:1036000081E001C080E080FD03C081E08E2502C022
:1036100080E090E0F82FF170FF2E80FF1CC08091B9
:1036200084022091850236E0821709F417C190E0E8
:10363000389FF001399FF00D1124EA57FD4F618149
:10364000561306C06081461303C06281E61203C0B0
:1036500001968770E9CFFE2CEE2009F421C18091FC
:10366000BB0281608093BB025AC0561306C0491347
:1036700004C0E11002C0F8019FC04D875E878D85B0
:103680009E850E94D219882379F1EE2069F120915C
:10369000BB02822F82958F7090E0029774F0809128
:1036A000B6029091B70298878F831986BB86AA8647
:1036B0002C87CE0107960E94521986E0F801A6EBEE
:1036C000B2E001900D928A95E1F70E94251A0E94BE
:1036D000171A0DC0561729F14D875E878D859E8577
:1036E0000E94D21981112CC0C8010E945219FF24D6
:1036F000F394D6C0282F207F69F77A2DB98AA88A3B
:103700006E2D89890E94D71986EB92E00E9452198A
:1037100086E0F60111928A95E9F70E94171AF12CBA
:10372000BFC04913D9CFE110D7CFF8018583C801B5
:103730000E94521986E0F60111928A95E9F7B0C00D
:10374000EE2091F22091BB02822F82958F7090E043
:1037500002970CF4B2CF8091B6029091B7029A838F
:1037600089831B82BD82AC822E83CE010196A3CFBA
:10377000E83CF10508F047C0FE2CEE2009F4B4CF78
:10378000561330C049132EC02091BB0220FD21C02A
:10379000822F82958F70482F50E041155105C9F056
:1037A000F80125834F30510541F08F5F982F929596
:1037B000907F822F8F70892B8583C8010E945219B8
:1037C00086E0F801A6EBB2E001900D928A95E1F750
:1037D00042C086E0F801A6EBB2E001900D928A9516
:1037E000E1F75EC04D875E878D859E850E94D21968
:1037F000811163CF8091BB0281608093BB02C801BD
:103800000E9452194DC07A2DB98AA88A6E2D8989D5
:103810000E94D71986E0F60111928A95E9F71BC03C
:10382000EE2009F461CF4D875E878D859E850E94CD
:10383000D219F82E882309F457CF86E0F801A6EBB9
:10384000B2E001900D928A95E1F786EB92E00E943A
:1038500078160E94251A0E94171A22C04D875E878B
:103860008D859E850E94DF1E292F22952F70223084
:1038700028F49F7039F0811105C00BC0243028F462
:103880009F7049F4805E883020F0C8010E94521970
:103890009F2CF92C05C0F8019581907F99F7F9CFFD
:1038A0008F2D61960FB6F894DEBF0FBECDBFDF91AE
:1038B000CF911F910F91FF90EF90DF90CF90BF902D
:1038C000AF909F90089588EC90E008951F93CF9358
:1038D000DF93CDB7DEB72C970FB6F894DEBF0FBEDF
:1038E000CDBF4F83588769877A878B879C87CE01A6
:1038F00007960E94911A8823D1F09F8188852A8596
:103900003B85232B31F08F3F31F481E09F3F19F449
:1039100003C081E001C080E080FD47C04F81588531
:1039200069857A858B859C850E94E6193EC086E074
:10393000FE013796DE01119601900D928A95E1F70E
:10394000FF81E8856A857B856115710531F0EF3F60
:1039500031F481E0FF3F19F403C081E001C080E051
:1039600080FD23C02091850230E0C9010196877057
:1039700099274091840250E084179507F1F1F9836B
:10398000EA837D836C8396E0929FD001939FB00D74
:103990001124AA57BD4FFE01319601900D929A95C0
:1039A000E1F7809385020E94F61916E08091840267
:1039B00090918502891771F1189FC00111248A57CF
:1039C0009D4F0E94911A882329F1E09184021E9F45
:1039D000F0011124EA57FD4F4081518162817381CA
:1039E000848195810E94E6198091840290E001967D
:1039F0008770992780938402D9CF0E94AA191092C8
:103A0000850210928402E6EBF2E086E0DF011D926F
:103A10008A95E9F72C960FB6F894DEBF0FBECDBF9E
:103A2000DF91CF911F910895089508950C94151D6D
:103A30000C94161D0E94181D6093DE027093DF0225
:103A40008093E0029093E1020C9490190C941A1D5B
:103A50000F931F930091DE021091DF022091E0028C
:103A60003091E102602B712B822B932B1F910F91D0
:103A70000C941A1D0F931F930091DE021091DF0228
:103A80002091E0023091E10260237123822393238D
:103A90001F910F910C941A1D0F931F930091DE023A
:103AA0001091DF022091E0023091E102602771273E
:103AB000822793271F910F910C941A1D0C94151DAA
:103AC0000E945E1D6093DA027093DB028093DC0239
:103AD0009093DD020C94901960E070E0CB010C949F
:103AE000601D611571058105910529F481E044236C
:103AF00061F080E00895DC01CB0104C0B695A79584
:103B0000979587954A95D2F781700895482F6091CF
:103B1000DA027091DB028091DC029091DD020C945C
:103B2000711D0F931F9341E050E060E070E08A0147
:103B30009B0104C0000F111F221F331F8A95D2F76B
:103B4000C901B8011F910F910C94601D0F931F9331
:103B500041E050E060E070E004C0440F551F661F74
:103B6000771F8A95D2F78091DA029091DB02A091BB
:103B7000DC02B091DD028A019B01082B192B2A2B54
:103B80003B2BC901B8011F910F910C94601D0F933D
:103B90001F9341E050E060E070E004C0440F551F07
:103BA000661F771F8A95D2F740955095609570955E
:103BB0008091DA029091DB02A091DC02B091DD02EB
:103BC0008A019B01082319232A233B23C901B80139
:103BD0001F910F910C94601D0F931F9341E050E0D3
:103BE00060E070E004C0440F551F661F771F8A9580
:103BF000D2F78091DA029091DB02A091DC02B091C1
:103C0000DD028A019B01082719272A273B27C901C2
:103C1000B8011F910F910C94601D0F931F93009199
:103C2000DA021091DB022091DC023091DD02602B80
:103C3000712B822B932B1F910F910C94601D0F936E
:103C40001F930091DA021091DB022091DC02309187
:103C5000DD0260237123822393231F910F910C9423
:103C6000601D0F931F930091DA021091DB022091E7
:103C7000DC023091DD0260277127822793271F9194
:103C80000F910C94601D0895292F220F920F990F08
:103C9000890FE82FE695E695E695877051E001C01B
:103CA000550F8A95EAF785E0E89FF0011124E45466
:103CB000FD4F20E030E070E04081CB01022E02C0D9
:103CC000969587950A94E2F78170819584278523DC
:103CD000842781932F5F3F4F2530310569F7089581
:103CE000292F220F920F990F890F682F66956695DD
:103CF0006695982F977085E0689FB001112440E089
:103D000050E080E0FB01E40FF51FE454FD4F2081FB
:103D100030E0092E02C0369527950A94E2F721700B
:103D20003327042E01C0220F0A94EAF7822B4F5F3B
:103D30005F4F4530510531F70895BF92CF92DF9222
:103D4000EF92FF920F931F93CF93DF938C01C0905C
:103D5000DA02D090DB02E090DC02F090DD0280918C
:103D6000DE029091DF02A091E002B091E102C82A48
:103D7000D92AEA2AFB2ACFE1D0E0D701C6010C2ECE
:103D800004C0B695A795979587950A94D2F780FDBC
:103D900004C0219790F7B12C07C0BC2EB8018C2F1E
:103DA0000E94EE090197A9F38B2DDF91CF911F910E
:103DB0000F91FF90EF90DF90CF90BF900895CF9339
:103DC000DF93EC010E949D1EBE010E94EE09DF916F
:103DD000CF9108951F93CF93DF93EB0190918302CE
:103DE000992321F0CB010E94DF1E13C0882349F0E4
:103DF000CB010E949D1E182F682FCE010E94441EE9
:103E000004C0CB010E94701E182FBE01812F0E949A
:103E1000EE09DF91CF911F9108958091E20285957F
:103E20008595859508958091E20287700895909117
:103E3000E202977081E009F480E008958091EE023B
:103E400008959091EE02892B8093EE02089580955B
:103E50009091EE0289238093EE0208951092EE0273
:103E600008958091ED0208959091ED02892B809341
:103E7000ED02089580959091ED0289238093ED02E3
:103E800008951092ED0208951092EC020895809129
:103E9000E302089508950C944A1F0C944B1F9091CF
:103EA000E302981721F08093E3020C944D1F0895CC
:103EB0008091E302882329F01092E30280E00C94C1
:103EC0004D1F0895E0918C01F0918D018091EE02DB
:103ED0008083E0918C01F0918D0190818091ED02C1
:103EE000892B8083E0918C01F0918D0190818091EC
:103EF000EC02892B80838091E302882381F0E0919A
:103F00008C01F0918D019081892B808380918C01AF
:103F100090918D010E94732081110E94581F809101
:103F20008C0190918D010C9437150C944A1F98E0E8
:103F3000899F90011124262B2093E2020E94A61D46
:103F40008091E2028595859585950C94951F109238
:103F5000E20280E00C94951F2091E202809582237A
:103F60008093E202982F977079F430E0482F082E62
:103F7000000C550B2417350739F0859585958595E7
:103F80000E94C71D0C94A71F089580E090E00E9436
:103F9000A22B21E08C3E9E4F09F020E0822F089555
:103FA00082E090E00C949A2B83E090E00C949A2BA2
:103FB000CF9384E090E00E949A2BC82F81E290E09A
:103FC0000E949A2B2C2F30E0A901582BCA01CF91C7
:103FD0000895CF93C92F682F84E090E00E94A82B0A
:103FE0006C2F81E290E0CF910C94A82BAB01BC0127
:103FF0008FE090E00C94BA2BAB01BC0183E190E020
:104000000C94BA2B60E070E0CB010C94FC1F60E0D4
:1040100070E0CB010E94F61F0C9402206CEE7EEF44
:1040200080E090E00E94C62B60E082E090E00E9479
:10403000A82B60E083E090E00E94A82B1092DE02A3
:104040001092DF021092E0021092E10260E084E040
:1040500090E00E94A82B60E081E290E00E94A82BF3
:1040600060E085E090E00E94A82B60E086E090E0B0
:104070000E94A82B6FEF87E090E00E94A82B40E001
:1040800050E0BA0188E090E00E94BA2B60E08DE039
:1040900090E00E94A82B40E050E0BA0188E190E057
:1040A0000E94BA2B60E087E190E00E94A82B40E0DC
:1040B00050E0BA018CE190E00E94BA2B60E080E20F
:1040C00090E00E94A82B40E050E0BA0188E190E027
:1040D0000E94BA2B0C9407200C940E20682F8EE0BF
:1040E00090E00C94A82BFC01329697E080E0915070
:1040F00029F021912223D9F38F5FF9CF0895662308
:1041000049F0FC01329608962191621729F0E817D0
:10411000F907D1F780E0089581E008959C01FC0142
:1041200032969FEF80E04191461789F09F3F19F446
:10413000411101C0982F8F5F8630A9F79F3F39F05A
:10414000F901E90FF11D97FDFA956283089508952D
:104150009C012A5F3F4FFC014281461301C012823D
:10416000019682179307B9F708950C948E200C944A
:10417000A820029626E0FC0111922A95E9F70895FD
:1041800008950C94C0200C94C020CF930E94C320AB
:104190000E945D060E94C120C0E08C2F0E94D306C1
:1041A000811104C0CF5FC830C1F701C081E0CF9159
:1041B00008950C94C0200C94D9200E94DB2080919B
:1041C0001805843049F11092F00220E488E190E073
:1041D0000FB6F894A895809360000FBE20936000FE
:1041E00080E00E94D2090E94DB2083B7817F846037
:1041F00083BF83B7816083BF7894889583B78E7FB0
:1042000083BF0FB6F894A895809160008861809371
:104210006000109260000FBE08950C94C0200E94B0
:10422000AA190E942B150E94D2090C940D211F92ED
:104230000F920FB60F9211248F939F93AF93BF935A
:104240008091F002811113C080910E0590910F05AD
:10425000A0911005B09111054196A11DB11D80934B
:104260000E0590930F05A0931005B0931105BF9113
:10427000AF919F918F910F900FBE0F901F90189547
:1042800082E084BD93E095BD9AEF97BD80936E0068
:1042900008952FB7F89480910E0590910F05A09185
:1042A0001005B09111052FBF08952FB7F8946091B4
:1042B0000E0570910F0580911005909111052FBF8B
:1042C00008959C014FB7F89480910E0590910F05C9
:1042D000A0911005B09111054FBF821B930B08955B
:1042E000CF92DF92EF92FF922FB7F894C0900E0515
:1042F000D0900F05E0901005F09011052FBFA70199
:104300009601261B370B480B590BCA01B901FF90C8
:10431000EF90DF90CF90089578941F920F920FB690
:104320000F9211248F939F93AF93BF9380910E05AB
:1043300090910F05A0911005B09111050196A11D56
:10434000B11D80930E0590930F05A0931005B093B7
:104350001105BF91AF919F918F910F900FBE0F905C
:104360001F90189587E797E79093010880930008BE
:104370009AE088E10FB6F894A895809360000FBE8C
:1043800090936000FFCF0E94C51F811102C00E9460
:104390006C200E94D01F8093EF020E94D81F909340
:1043A0001305809312050E94D41F682F70E080E0EF
:1043B00090E00E94261D6091DA027091DB028091EC
:1043C000DC029091DD020C945E1D8091F70280FF6B
:1043D0000BC06091930185E0689FB0011124759531
:1043E0006795759567952BC081FF09C06091930112
:1043F00085E0689FB00111247595679520C082FF04
:1044000007C06091930185E0689FB001112417C037
:104410009091F6029923D1F060919201961788F756
:104420002091930185E0289F90011124929FA00183
:10443000939F500D112470E0CA010E946A2B6038CE
:10444000710540F46115710519F406C065E070E06E
:10445000862F08958FE7089581E008958091F702EF
:1044600080FF08C060918F0170E075956795759524
:10447000679521C081FF06C060918F0170E075953E
:10448000679519C082FF04C060918F0170E010C071
:104490009091F502992399F060918E019617A0F7FB
:1044A00080918F01899FC001112470E00E946A2BC6
:1044B0006038710540F46115710519F406C061E0BA
:1044C00070E0862F08958FE7089581E00895803F7A
:1044D00021F40E94E521819504C0813F29F40E94C6
:1044E000E5218093FB020895823F21F40E94E5219B
:1044F000819504C0833F29F40E94E5218093FA024C
:104500000895893F19F40E942E2205C08A3F31F494
:104510000E942E2281958093FC0208958B3F21F406
:104520000E942E22819504C08C3F29F40E942E22E5
:104530008093FD020895843F21F48091F902816007
:1045400017C0853F21F48091F902826011C0863F37
:1045500021F48091F90284600BC0873F21F480919F
:10456000F902886005C0883F31F48091F9028061CA
:104570008093F90208958D3F21F48091F7028160C4
:104580000BC08E3F21F48091F702826005C08F3FFF
:1045900029F48091F70284608093F7020895803FA8
:1045A00039F48091FB0287FF6AC01092FB0267C05A
:1045B000813F29F48091FB021816BCF360C09091F2
:1045C000FA02823F29F497FF5AC01092FA0257C0AC
:1045D000833F19F41916CCF352C09091FC02893F25
:1045E00031F419160CF04BC01092FC0248C08A3FFF
:1045F00019F497FF44C0F8CF8B3F39F48091FD0246
:1046000087FF3DC01092FD023AC08C3F29F4809193
:10461000FD021816BCF333C0843F21F48091F902E7
:104620008E7F17C0853F21F48091F9028D7F11C0E4
:10463000863F21F48091F9028B7F0BC0873F21F4E4
:104640008091F902877F05C0883F31F48091F9029B
:104650008F7E8093F90213C08D3F21F48091F70281
:104660008E7F0BC08E3F21F48091F7028D7F05C0B5
:104670008F3F29F48091F7028B7F8093F70280911E
:10468000FA02811106C08091FB02811102C01092D2
:10469000F6028091FC02811106C08091FD02811119
:1046A00002C01092F50208950E9449212091FA0259
:1046B000211104C02091FB02222321F09093F402E7
:1046C0008093F3022091FC02211104C02091FD028D
:1046D000222321F09093F2028093F10288EF92E07E
:1046E0000C944215EF92FF920F931F93CF93DF9399
:1046F00000D000D000D0CDB7DEB786E0E8EFF2E022
:10470000DE01119601900D928A95E1F7E090FA0290
:10471000F090FB020091FC021091FD021092FA024F
:104720001092FB021092FC021092FD02E11003C0F5
:10473000FF2009F45DC08091F3029091F4020E9481
:104740006121AC019091F602992339F020919401F6
:1047500030E02417350758F04BC0209195018AE0CE
:10476000289F900111242417350718F041C09F3F5E
:1047700019F09F5F9093F602EE2061F00E94E52110
:104780001E1414F09FEF01C091E0989F902D11240A
:104790009093FA02FF2061F00E94E5211F1414F0AB
:1047A0009FEF01C091E0989F902D11249093FB0200
:1047B0003091FA023323E1F02091FB022223C1F071
:1047C00045EB3403C0011124992319F09093FA02A8
:1047D00003C081E08093FA0235EB2303C00111246A
:1047E000992319F09093FB0203C081E08093FB02B0
:1047F000011103C0112309F45DC08091F102909171
:10480000F2020E946121AC019091F502992339F0E6
:104810002091900130E02417350758F04BC02091CB
:1048200091018AE0289F900111242417350718F080
:1048300041C09F3F19F09F5F9093F502002361F004
:104840000E942E22101614F09FEF01C091E0989F55
:10485000902D11249093FC02112361F00E942E22CE
:10486000111614F09FEF01C091E0989F902D112434
:104870009093FD023091FC023323E1F02091FD0280
:104880002223C1F045EB3403C0011124992319F010
:104890009093FC0203C081E08093FC0235EB23037C
:1048A000C0011124992319F09093FD0203C081E007
:1048B0008093FD028091FA0281110BC08091FB026E
:1048C000811107C08091FC02811103C08091FD021B
:1048D00081110E945423EB82FC820D831E8386E0AB
:1048E000FE013196A8EFB2E001900D928A95E1F7B2
:1048F00026960FB6F894DEBF0FBECDBFDF91CF91E5
:104900001F910F91FF90EF900895E8EFF2E086E09D
:10491000DF011D928A95E9F71092F6021092F502D6
:104920001092F7020895809106030895CF93DF93C4
:1049300000D01F92CDB7DEB790911805943019F5CD
:1049400089837B836A8382E08093E9008FEF909173
:10495000E800815095FD06C095ED9A95F1F70000AD
:104960008111F5CF8091E80085FF0DC040E050E057
:1049700063E070E0CE0101960E94AC268091E800D1
:104980008E778093E8000F900F900F90DF91CF917A
:104990000895BC0184E00C949624BC0183E00C943F
:1049A000962422E02093E9002FEF3091E800215077
:1049B00035FD06C035ED3A95F1F700002111F5CF30
:1049C0002091E80025FF0BC040E050E066E070E079
:1049D0000E94AC268091E8008E778093E8000895CD
:1049E000CF93DF9321E02093E9002FEF3091E8008F
:1049F000215035FD06C035ED3A95F1F70000211143
:104A0000F5CF2091E80025FF14C0EC0140E050E014
:104A100068E070E00E94AC268091E8008E77809379
:104A2000E80088E0FE01AEEFB2E001900D928A95B9
:104A3000E1F7DF91CF91089580911705811109C0A9
:104A40000E943D280E949A288091E2008460809311
:104A5000E2000895109217050895089508950C94A2
:104A60000F2142E061EC81E00E94B62742E261EC56
:104A700082E00C94B62780911A05833009F460C057
:104A800030F4813071F0823009F499C008958A3091
:104A900009F485C08B3009F46BC0893009F0A7C0D8
:104AA00020C080911905813A09F0A1C08091E800E9
:104AB000877F8093E80080911D0590911E05892BCA
:104AC00021F468E08EEF92E003C060E080E090E0C7
:104AD00070E00E94F7268091E8008B778093E800D1
:104AE000089580911905813209F081C080911D05DA
:104AF00090911E05029708F07AC08091E800877FA8
:104B00008093E8008091E80082FD05C0809118053F
:104B10008111F8CF6CC02091F3008091F20090E0F9
:104B2000922B029729F48091F1008B7F813021F440
:104B30008091F100809306038091E8008B7753C049
:104B400080911905813A09F052C080911D0590911C
:104B50001E05892B09F04BC08091E800877F809368
:104B6000E8008091E80080FFFCCF8091A00136C072
:104B7000809119058132D9F580911D0590911E050E
:104B8000892BA9F58091E800877F8093E8000E9437
:104B9000EB2780911B058093A0010C94AA198091AA
:104BA0001905813221F58091E800877F8093E80024
:104BB0000E94EB2780911C05809307030895809144
:104BC0001905813AA1F48091E800877F8093E8007D
:104BD0008091E80080FFFCCF809107038093F10073
:104BE0008091E8008E778093E8000C94EB2708957D
:104BF00084B7877F84BF0FB6F894A8958091600032
:104C0000886180936000109260000FBE90E080E8A1
:104C10000FB6F89480936100909361000FBE0E94DC
:104C200094150E943D280E949A288091E200846099
:104C30008093E20078940E942F2B0E949A1586E9B7
:104C400091E00E94261580911805853069F40E9434
:104C5000DD20809116058823B1F30E94C5208823AA
:104C600091F30E949626EFCF0E94A5150E94881509
:104C70000E948715E8CF0C943D26292F3327233037
:104C80003105C9F060F42130310581F02230310561
:104C900009F044C08BE390E020E738E043C02132C4
:104CA0003105E1F02232310549F138C082E190E06E
:104CB0002BEA38E037C099278130910549F028F078
:104CC000029761F5E0E1F8E005C0ECE6F8E002C02B
:104CD000EAE5F8E0849190E09F0124C06115710538
:104CE00041F061307105D1F489E090E02BE938E0C2
:104CF00019C089E090E022E838E014C06115710520
:104D000041F06130710551F481E890E02DEB38E01D
:104D100009C080E490E02EE339E004C080E090E038
:104D200020E030E0FA0131832083089580E189BDDD
:104D300082E189BD09B400FEFDCF8091D8008F7D4E
:104D40008093D8008091E00082608093E0008091A1
:104D5000E00081FDFCCF0895CF92DF92EF92FF92A9
:104D60000F931F93CF93DF93EC018B017A010E9485
:104D70000A28811133C0E114F10439F0F701808170
:104D80009181081B190BC80FD91FC12CD12C0115FB
:104D9000110519F18091E80085FD16C08091E800A9
:104DA0008E778093E800E114F10449F0F7018081E7
:104DB0009181C80ED91ED182C08285E00FC00E94A9
:104DC0000A28882321F30AC089918093F1000150B9
:104DD0001109FFEFCF1ADF0ADACF80E0DF91CF9120
:104DE0001F910F91FF90EF90DF90CF900895209149
:104DF0001F05309120052617370748F0611571050A
:104E000039F42091E8002E772093E80001C0B90121
:104E1000FC0120E06115710579F180911805882366
:104E2000F1F18530F1F18091E80083FD3CC0809183
:104E3000E80082FD2EC08091E80080FFEBCF20913A
:104E4000F3008091F20090E0922B6115710551F012
:104E50008830910538F421912093F1006150710957
:104E60000196F3CF21E0089709F020E08091E80057
:104E70008E778093E800CECF2111CFCF0AC08091EA
:104E80001805882361F0853061F08091E80083FD8A
:104E90000AC08091E80082FFF2CF80E0089582E0AE
:104EA000089583E0089581E0089520911F053091D1
:104EB00020052617370748F06115710539F4209150
:104EC000E8002E772093E80001C0B901FC0120E042
:104ED0006115710591F180911805882309F440C08E
:104EE000853009F43FC08091E80083FD3DC080918A
:104EF000E80082FD2FC08091E80080FFE9CF20917B
:104F0000F3008091F20090E0922B6115710559F049
:104F10008830910540F424912093F100319661503E
:104F200071090196F2CF21E0089709F020E0809105
:104F3000E8008E778093E800CBCF2111CCCF0AC058
:104F400080911805882361F0853061F08091E80038
:104F500083FD0AC08091E80082FFF2CF80E00895CF
:104F600082E0089583E0089581E00895982F9730B6
:104F700068F59093E900981739F07091EC00209152
:104F8000ED005091F00003C0242F762F50E021FD5A
:104F900002C09F5FECCF3091EB003E7F3093EB007F
:104FA0003091ED003D7F3093ED003091EB003160AA
:104FB0003093EB007093EC002093ED005093F000E1
:104FC0002091EE0027FDE5CF80E008958F7080935B
:104FD000E90081E008958091190587FF11C0809153
:104FE000E80082FD05C0809118058111F8CF11C03D
:104FF0008091E8008B770BC080911805882349F0D9
:105000008091E80080FFF8CF8091E8008E77809350
:10501000E80008952091E4003091E50095E6409184
:10502000EC00842F817040FF23C08091E80080FD58
:105030001DC080911805882399F0853099F08091E2
:10504000EB0085FD11C04091E4005091E50024176C
:10505000350729F3915011F09A01E1CF84E00895CA
:1050600082E0089583E0089581E0089580E0089546
:105070004091E80042FFDDCF08950E94AB280E94D6
:10508000B328E0EEF0E0808181608083E8EDF0E01D
:1050900080818F77808319BCA7EDB0E08C918E7FE3
:1050A0008C9380818F7E80831092170508950F93D3
:1050B0001F93CF93DF930E94AB280E94B328C8EDC3
:1050C000D0E088818F778883888180688883888111
:1050D0008F7D888319BC10921805109214051092C8
:1050E00016051092150500EE10E0F80180818B7F07
:1050F000808388818160888342E060E080E00E9454
:10510000B627E1EEF0E080818E7F8083E2EEF0E072
:10511000808181608083808188608083F8018081C4
:105120008E7F8083888180618883DF91CF911F91FA
:105130000F910895E8EDF0E080818F7E8083E7EDA8
:10514000F0E080818160808384E082BF81E0809391
:1051500017050C945728E8EDF0E080818E7F80835E
:105160001092E20008951092DA001092E100089582
:105170001F920F920FB60F9211242F933F934F93CC
:105180005F936F937F938F939F93AF93BF93EF93AF
:10519000FF938091E10082FF0BC08091E20082FFCB
:1051A00007C08091E1008B7F8093E1000E942E2B4D
:1051B0008091DA0080FF1FC08091D80080FF1BC063
:1051C0008091DA008E7F8093DA008091D90080FF91
:1051D0000DC080E189BD82E189BD09B400FEFDCF2B
:1051E00081E0809318050E941C2505C019BC10920F
:1051F00018050E942A258091E10080FF19C0809146
:10520000E20080FF15C08091E2008E7F8093E20073
:105210008091E20080618093E2008091D8008062FA
:105220008093D80019BC85E0809318050E942E2534
:105230008091E10084FF30C08091E20084FF2CC0A7
:1052400080E189BD82E189BD09B400FEFDCF809176
:10525000D8008F7D8093D8008091E1008F7E80936D
:10526000E1008091E2008F7E8093E2008091E20075
:1052700081608093E20080911405882311F084E01E
:1052800007C08091E30087FD02C081E001C083E098
:10529000809318050E942F258091E10083FF29C08B
:1052A0008091E20083FF25C08091E100877F809399
:1052B000E10082E080931805109214058091E100CE
:1052C0008E7F8093E1008091E2008E7F8093E200E8
:1052D0008091E20080618093E20042E060E080E043
:1052E0000E94B6278091F00088608093F0000E94B1
:1052F0002D25FF91EF91BF91AF919F918F917F915C
:105300006F915F914F913F912F910F900FBE0F9032
:105310001F9018951F920F920FB60F9211242F9382
:105320003F934F935F936F937F938F939F93AF932D
:10533000BF93CF93DF93EF93FF93C091E900CF70BA
:105340008091EC00D82FD17080FDD0E81092E90058
:105350008091F000877F8093F00078940E94CE299E
:105360001092E9008091F00088608093F000CD2BCE
:10537000CF70C093E900FF91EF91DF91CF91BF9182
:10538000AF919F918F917F916F915F914F913F91DD
:105390002F910F900FBE0F901F9018951F93CF93D2
:1053A000DF93CDB7DEB7AA970FB6F894DEBF0FBE76
:1053B000CDBFE9E1F5E08091F100819325E0E13294
:1053C000F207C9F70E943B258091E80083FF2EC1B8
:1053D0008091190590911A05492F50E04A305105E6
:1053E00008F024C1FA01E059FF4F0C947E2B80385D
:1053F00021F0823809F01AC108C0809115059091FA
:105400001605992389F082600FC080911D058F7069
:10541000873008F00BC18093E9008091EB0085FB99
:10542000882780F91092E9009091E800977F909387
:10543000E8008093F1001092F100D1C0282F2D7F59
:1054400009F0F4C0882319F0823061F0EFC0809138
:105450001B05813009F0EAC0933009F080E08093A9
:1054600016052EC080911B0581112AC080911D0553
:105470008F702FEF280F263008F0D8C08093E900F6
:105480002091EB0020FF1CC0933021F48091EB00B1
:10549000806214C09091EB0090619093EB0021E04A
:1054A00030E0A90102C0440F551F8A95E2F74093EE
:1054B000EA001092EA008091EB0088608093EB0094
:1054C0001092E9008091E800877F8093E8000E94B5
:1054D000EB27ACC08111AAC010911B051F778091EA
:1054E000E3008078812B8093E3008091E800877F40
:1054F0008093E8000E94EB278091E80080FFFCCFBA
:105500008091E30080688093E300111102C082E083
:1055100001C083E08093180589C08058823008F06C
:1055200085C080911B0590911C058C3D53E095072B
:1055300079F583E08A838AE289834FB7F894DE01A4
:10554000139620E03EE051E2E32FF0E05093570045
:10555000E49120FF03C0E295EF703F5FEF708E2F64
:1055600090E0EA3010F0C79601C0C0968D939D93ED
:105570002F5F243149F74FBF8091E800877F8093E8
:10558000E8006AE270E0CE0101960E94F72616C09C
:1055900060911D0570911E05AE014F5F5F4F0E9427
:1055A0003B26BC01892B09F441C09091E800977F0C
:1055B0009093E80089819A810E9455278091E800A4
:1055C0008B778093E80032C0803881F58091E800C5
:1055D000877F8093E800809114058093F10080918B
:1055E000E8008E7772CF811121C080911B059091C8
:1055F0001C0599270297D4F48091E800877F809357
:10560000E80080911B05809314050E94EB27809190
:105610001405811106C08091E30087FD02C081E07E
:1056200001C084E0809318050E9431258091E80034
:1056300083FF0AC08091E800877F8093E800809113
:10564000EB0080628093EB00AA960FB6F894DEBF61
:105650000FBECDBFDF91CF911F9108950895CF93D5
:10566000809118058823A1F0C091E900CF70909136
:10567000EC00892F817090FD80E8C82B1092E90022
:105680008091E80083FD0E94CE29CF70C093E9008D
:10569000CF910895991B79E004C0991F961708F0DF
:1056A000961B881F7A95C9F780950895AA1BBB1B86
:1056B00051E107C0AA1FBB1FA617B70710F0A61B12
:1056C000B70B881F991F5A95A9F780959095BC0133
:1056D000CD01089597FB072E16F4009407D077FDAF
:1056E00009D00E94562B07FC05D03EF49095819579
:1056F0009F4F0895709561957F4F0895EE0FFF1F9E
:105700000590F491E02D0994FB01DC0102C00590A5
:105710000D9241505040D8F70895FB01DC0104C0C0
:105720008D910190801921F441505040C8F7881B99
:10573000990B0895F999FECF92BD81BDF89A9927EA
:1057400080B50895A8E1B0E042E050E00C94CE2B83
:10575000262FF999FECF92BD81BDF89A019700B42A
:10576000021639F01FBA20BD0FB6F894FA9AF99ACA
:105770000FBE08950396272F0E94A92B0E94A82BE5
:10578000252F0E94A92B242F0C94A92B0196272F9B
:105790000E94A92B0C94A82BDC01CB01FC01F999E8
:1057A000FECF06C0F2BDE1BDF89A319600B40D926D
:0C57B00041505040B8F70895F894FFCF26
:1057BC0005013102000000012F0231020432020106
:1057CC002F023002000000043602FFFF09111A11EB
:1057DC002A11000000000000000000000000000082
:1057EC007C0109111A112A110000000000000000B0
:1057FC00000000000000740109111A112A110000A8
:10580C0000000000000000000000000080010911F1
:10581C001A112A1100000000000000000000000016
:10582C00000078012A004C00E200E6002C00280061
:10583C00E10039000021007F220003FFE402280868
:10584C00641E140A321E9324F024D124CD24C924BE
:10585C0001F4F5F6F73133946697C600000000E2C8
:10586C0000E900EA00B500B600B700CD008301CC1A
:10587C00008A0192019401210223022402250226AE
:10588C000227022A02B300B4006F007000818283E9
:10589C000008101818100800E200E900EA00B50032
:1058AC00B600B700CD008301CC008A0192019401AF
:1058BC002102230224022502260227022A02B30017
:0A58CC00B4006F00700081828300B9
:00000001FF
